:020000040800F2
:10000000380E0120A1010008A33F0008E1390008D3
:10001000A13F00086D120008394F000800000000E1
:10002000000000000000000000000000E14B00089C
:100030003314000800000000D1430008E34B00081F
:10004000BB010008BB010008BB010008BB010008A0
:10005000BB010008BB010008BB010008BB01000890
:10006000BB010008BB010008BB010008BB01000880
:10007000BB010008BB010008BB010008BB01000870
:10008000BB010008BB010008BB010008BB01000860
:10009000BB010008BB010008BB010008BB01000850
:1000A000BB010008BB010008BB010008BB01000840
:1000B000BB010008BB010008BB010008BB01000830
:1000C000BB010008BB010008BB010008BB01000820
:1000D000BB0100082D4F0008BB010008BB01000850
:1000E000BB010008BB010008BB010008BB01000800
:1000F000BB010008BB010008BB010008BB010008F0
:10010000BB010008D9430008BB010008BB0100087F
:10011000BB010008BB010008BB010008BB010008CF
:10012000BB0100084D130008BB010008591300086B
:10013000BB010008BB010008BB010008BB010008AF
:10014000BB010008BB010008BB010008BB0100089F
:10015000BB01000865130008BB010008BB010008D3
:10016000BB010008BB010008BB010008BB0100087F
:10017000BB010008BB0100080913000800000000D3
:10018000BB010008BB010008DFF810D000F09CF8AC
:100190000048004735930008AFF30080380E012077
:1001A0000648804706480047FEE7FEE7FEE7FEE711
:1001B000FEE7FEE7FEE7FEE7FEE7FEE77D4C000810
:1001C000890100082DE9F05F0546002092469B4614
:1001D00088460646814640241BE02846414647465D
:1001E000224600F060F853465A46C01A914110D397
:1001F00011461846224600F047F82D1A67EB010811
:100200004F4622460120002100F03EF817EB00097E
:100210004E41201EA4F10104DFDC484631462A4647
:100220004346BDE8F09F40EA01039B0703D009E085
:1002300008C9121F08C0042AFAD203E011F8013BD2
:1002400000F8013B521EF9D27047D2B201E000F82B
:10025000012B491EFBD270470022F6E710B513466A
:100260000A4604461946FFF7F0FF204610BD30B598
:1002700004460020034600E05B1C934203D2E05C8E
:10028000CD5C401BF8D030BD202A04DB203A00FAB8
:1002900002F1002070479140C2F1200320FA03F3DD
:1002A000194390407047202A04DB203A21FA02F0DB
:1002B0000021704721FA02F3D040C2F120029140A0
:1002C0000843194670470000064C074D06E0E068F9
:1002D00040F0010394E8070098471034AC42F6D38D
:1002E000FFF756FF84060108A406010870B58C18B4
:1002F00010F8015B15F0070301D110F8013B2A113A
:1003000006D110F8012B03E010F8016B01F8016B26
:100310005B1EF9D12B0705D40023521E0DD401F822
:10032000013BFAE710F8013BCB1A921C03E013F8EB
:10033000015B01F8015B521EF9D5A142D8D3002020
:1003400070BD2DE9F04F86B09DF858700091039272
:10035000002F059318BF0123109C04FB0333049363
:100360000F9D14BF2F4601270197BDF844305B084D
:1003700000F09F80DDF850B0139A02EB83030293E4
:10038000DDF848E0039F5FEA9E08DDF800C057F8FB
:10039000046B57F8043B03971A46314622D05CF8A9
:1003A0001E705CF8049B50F804AB50F8045B2AFB09
:1003B00009662AFB071125FB093325FB07225CF898
:1003C0001E705CF8049B50F804AB50F8045B2AFBE9
:1003D00009662AFB071125FB093325FB0722B8F123
:1003E0000108DCD10EF003078FB13CF91E803CF907
:1003F00002AB30F9025B30F9029B0AFB056609FB90
:100400000A3308FB051109FB0822013FEDDCDDF88A
:100410004CA0159F3AF9024B57F804CB5BF8045BEC
:10042000C4F1150999EA040940F3C8804FEA460669
:100430004FEA410156FB05C651FB05C146FA04F6D9
:1004400041FA04F13AF9024B57F804CB5BF8045B2C
:10045000C4F1150999EA040940F399804FEA43036E
:100460004FEA420253FB05C352FB05C243FA04F3B1
:1004700042FA04F206F30706DDF80490179CDDF853
:1004800010802670A04401F3070188F8001003F3E0
:10049000070304F8093002F3070208F8092004EB07
:1004A00049021792CDF84CA0029C1597A2457FF403
:1004B00067AF119B13F0010354D0BDF848E0039BD4
:1004C000DDF800C019685FEA9E070CEB4E040E468B
:1004D00015D05CF81E505CF8048B50F804AB50F853
:1004E000043B2AFB08662AFB05115CF81EA05CF899
:1004F000048B23FB086623FB0A11013FE9D11EF0A0
:1005000003070BD03CF81E303CF8029B30F902ABDD
:1005100019FB0A66013F13FB0A11F3DCDDF84CA05E
:10052000159FBAF90040D7F800C0DBF80050C4F1BD
:10053000150999EA040958DD4FEA46064FEA4101D8
:1005400056FB05C651FB05C146FA04F641FA04F113
:1005500006F30706179A049C167001F3070111555C
:10056000019B1A441199169B109C33B10F9B04F107
:10057000020003FB1100104406E0A2EB0100059A03
:1005800004F1020402FB040006B0BDE8F08F002C69
:1005900042DD4FF0010909FA04F94FEAA90953FBBA
:1005A00005934FEA430343FA04F3634452FB059275
:1005B0004FEA420242FA04F262445BE7002C3CDD5F
:1005C0004FF0010909FA04F94FEAA90956FB05960B
:1005D0004FEA460646FA04F6664451FB05914FEA97
:1005E000410141FA04F161442CE7002C36DD4FF063
:1005F000010909FA04F94FEAA90956FB05964FEAE1
:10060000460646FA04F6664451FB05914FEA41015D
:1006100041FA04F161449BE7C4F1010903FA09F3CB
:1006200003F31F0353FB15F302FA09F202F31F024F
:1006300052FB15F2634462441CE7C4F1010906FA57
:1006400009F606F31F0656FB15F601FA09F101F348
:100650001F0151FB15F166446144F3E6C4F1010941
:1006600006FA09F606F31F0656FB15F601FA09F11C
:1006700001F31F0151FB15F16644614468E7000076
:100680002DE9F04F99B01490139116921293299876
:1006900000F00303032B0CBF012600261796032846
:1006A0000CBF01260026189610F00200259B00289A
:1006B00014BF18460120109026980CBF064601264C
:1006C0001196DDE92C04002C18BF20462C902698AA
:1006D000012840F3BE814FEA4303299C14F0020F26
:1006E00001D14FF0020315934FF00008CDF834808C
:1006F000DDF834B0239A02EB8B02B2F90030B2F984
:100700000240CDE90434229A02EBCB02D2E9001276
:10071000CDE902122B9A02EBCB02D2E90012CDE90D
:100720000012002BCCBF00204FF0FF30152BC8BFAC
:100730000120002CCCBF00214FF0FF31152CC8BF89
:100740000121CDE906012D9B002B00F09782289B0B
:10075000002B40F0BB821A461846169901EBCB01DC
:10076000D1E9003403441444CDE90934129A2498A1
:1007700018992A9B00291CBF0332D218DDF850902B
:100780000B92401000F044810F930E900B9B279F1B
:10079000119A2C9EDDE909CEE246F34613440C93F0
:1007A0005FEA271800F0948059F8075056F8040BB8
:1007B00056F8041B56F8042B56F8043B2FFA85F420
:1007C0002FFA95F524FB00AA24FB02BB25FB01AA06
:1007D00025FB03BB59F8044B2FFA84F52FFA94F448
:1007E00025FB00CC25FB02EE24FB01CC24FB03EE11
:1007F00059F8075056F8040B56F8041B56F8042B0A
:1008000056F8043B2FFA85F42FFA95F524FB00AA3D
:1008100024FB02BB25FB01AA25FB03BB59F8044BB3
:100820002FFA84F52FFA94F425FB00CC25FB02EE79
:1008300024FB01CC24FB03EE59F8075056F8040BB7
:1008400056F8041B56F8042B56F8043B2FFA85F48F
:100850002FFA95F524FB00AA24FB02BB25FB01AA75
:1008600025FB03BB59F8044B2FFA84F52FFA94F4B7
:1008700025FB00CC25FB02EE24FB01CC24FB03EE80
:1008800059F8075056F8040B56F8041B56F8042B79
:1008900056F8043B2FFA85F42FFA95F524FB00AAAD
:1008A00024FB02BB25FB01AA25FB03BB59F8044B23
:1008B0002FFA84F52FFA94F425FB00CC25FB02EEE9
:1008C00024FB01CC24FB03EEB8F101083FF76CAF29
:1008D00017F00F0046D0C7F38108B8F1000F26D0FB
:1008E00059F8075056F8040B56F8041B56F8042B19
:1008F00056F8043B2FFA85F42FFA95F524FB00AA4D
:1009000024FB02BB25FB01AA25FB03BB59F8044BC2
:100910002FFA84F52FFA94F425FB00CC25FB02EE88
:1009200024FB01CC24FB03EEB8F10108D8DC17F05E
:100930000308B8F1000F15D0279836F9023B36F9B5
:10094000025B99F9001013FB01CC15FB01EE19F9BC
:10095000001013FB01AA15FB01BB09F10109B8F155
:100960000108EADC0B9D2E46179868B10F9A901E7D
:1009700009DC0C9CC2F1020204EB42020C922A9A9E
:10098000104405F102050F9000980299049A069B05
:100990000C9F002B40F0C9804FEA4C0C4FEA4A0AEA
:1009A0005CFB010C5AFB010A4CFA02FC4AFA02FAFF
:1009B0000CF3070C0AF3070A86F800C087F800A0BA
:1009C00001980399059A079BDDF84080002B40F0C1
:1009D000D4804FEA4E0E4FEA4B0B5EFB010E5BFBE1
:1009E000010B4EFA02FE4BFA02FB0EF3070E0BF35D
:1009F000070B06F808E007F808B0119B279A05EBEB
:100A000043030B9391440E9B013B0E937FF4BEAEC8
:100A1000CDF82090249B13F0010F40F0D680139B5B
:100A2000279A03EB42031393129B159A13441293D4
:100A30002D9B23B12C9B279A03EB82032C930D9AB9
:100A4000269B4FEA630302F101020D9293423FF7A6
:100A50004FAE269D15F0010560D0DDF8A880189DE9
:100A6000129E002D1CBF033646442499002955DDF3
:100A7000CDF83C80169D269FA7F1010705EB870C5A
:100A8000DCF800C0229B03EB870424682B9B03EB5C
:100A900087000068239B03EB4707B7F90070289A8B
:100AA000002FCCBF4FF000094FF0FF39152FC8BF02
:100AB0004FF00109149DDDF89CB0BBF1000FE64634
:100AC0000CDDDDF84C8015F9013B18F901ABA3EB07
:100AD00002030AFB03EEBBF1010BF4DCB9F1000FDA
:100AE00040F064814FEA4E0E5EFB040E4EFA07FEA4
:100AF0000EF3070E86F800E0299B13F0020F11D0C9
:100B000013F0010F05D00F9B013B02D12A9B06F188
:100B1000020606F101060F930139CCDC002019B062
:100B2000BDE8F08F269B1E44F6E7013314D04FF04A
:100B3000010303FA02F34FEAA3035CFB013C4FEA13
:100B40004C0C4CFA02FC84445AFB013A4FEA4A0A24
:100B50004AFA02FA82442BE7C2F101030CFA03FCC1
:100B60000CF31F0C5CFB11FC0AFA03FA0AF31F0AD0
:100B70005AFB11FA844482441AE7013314D04FF02F
:100B8000010303FA02F34FEAA3035EFB013E4FEABF
:100B90004E0E4EFA02FE86445BFB013B4FEA4B0BC6
:100BA0004BFA02FB834420E7C2F101030EFA03FE75
:100BB0000EF31F0E5EFB11FE0BFA03FB0BF31F0B74
:100BC0005BFB11FB864483440FE7279FDDF82090F1
:100BD0002C9EDDE909CE5FEAA70818D059F8044B2E
:100BE00056F8040B56F8041B56F8042B56F8043B31
:100BF0002FFA84F52FFA94F425FB00CC25FB02EEA6
:100C000024FB01CC24FB03EEB8F10108E6DC17F06D
:100C10000308B8F1000F0CD036F9023B36F9025B3D
:100C200019F9011B13FB01CC15FB01EEB8F101080A
:100C3000F2DC00980299049A069B109F0B9E3744A1
:100C4000002B40F099804FEA4C0C5CFB010C4CFAF5
:100C500002FC0CF3070C86F800C001980399059A72
:100C6000079B002B66D14FEA4E0E5EFB010E4EFA3B
:100C700002FE0EF3070E87F800E0D0E61398279FD8
:100C800000EB07092C9B032F11DD4FEAA70650F854
:100C9000041B59F8044B2FFA91F22FFA81F12FFA25
:100CA00094F82FFA84F4A3E81601013EEFDC17F064
:100CB00003067FF74CAD10F9011B23F8021B19F94D
:100CC000011B23F8021B013EF5DC40E5279E2C9A10
:100CD0004FF000031846B11017D0B2E8801600FAA2
:100CE00087F000FAA7F000FA89F000FAA9F003FAF9
:100CF0008AF303FAAAF303FA8CF303FAACF301398B
:100D0000EBDCC0F10000C3F1000316F003010BD0CF
:100D1000B2F90040A0EB0400B2F90240A3EB0403D7
:100D2000013902F10402F3DC289A02FB00F003FB14
:100D300002F212E5013311D04FF0010303FA02F37E
:100D40004FEAA3035EFB013E4FEA4E0E4EFA02FE4F
:100D500086440EF3070E87F800E060E6C2F1010357
:100D60000EFA03FE0EF31F0E5EFB11FE86440EF319
:100D7000070E87F800E052E601330DD04FF0010373
:100D800003FA02F34FEAA3035CFB013C4FEA4C0C6D
:100D90004CFA02FC84445CE7C2F101030CFA03FC48
:100DA0000CF31F0C5CFB11FC844452E77B1C0DD040
:100DB0004FF0010303FA07F34FEAA3035EFB043E7F
:100DC0004FEA4E0E4EFA07FE864491E6C7F1010344
:100DD0000EFA03FE0EF31F0E5EFB14FE864487E63A
:100DE0002DE9F04F99B000BF149013911692129311
:100DF0004FF00008CDF83480DDF834B0239A02EBD0
:100E00008B02B2F90030B2F90240CDE90434229AE3
:100E100002EBCB02D2E90012CDE902122B9A02EBCF
:100E2000CB02D2E90012CDE9001213982C9B4FF0AF
:100E30001006046C50F8041B2FFA91F22FFA81F17E
:100E40002FFA94F82FFA84F4A3E81601013EF0DC9F
:100E5000289B2C9A4FF0000318464FF01001B2E87F
:100E6000001700FA88F000FAA8F000FA89F000FAFA
:100E7000A9F003FA8AF303FAAAF303FA8CF303FA4C
:100E8000ACF30139EBDCC0F10000C3F10003289A98
:100E900002FB00F003FB02F2169901EBCB01D1E952
:100EA000003403441444CDE90934129A4FF0050389
:100EB00002F103021A44DDF850900B924FF03E0706
:100EC0000F930B9B2C9EDDE909CEE246F34603F11E
:100ED00001030C934FF00208D9F8405056F8040B68
:100EE00056F8041B56F8042B56F8043B2FFA85F4E9
:100EF0002FFA95F524FB00AA24FB02BB25FB01AACF
:100F000025FB03BB59F8044B2FFA84F52FFA94F410
:100F100025FB00CC25FB02EE24FB01CC24FB03EED9
:100F2000D9F8405056F8040B56F8041B56F8042B19
:100F300056F8043B2FFA85F42FFA95F524FB00AA06
:100F400024FB02BB25FB01AA25FB03BB59F8044B7C
:100F50002FFA84F52FFA94F425FB00CC25FB02EE42
:100F600024FB01CC24FB03EED9F8405056F8040BC7
:100F700056F8041B56F8042B56F8043B2FFA85F458
:100F80002FFA95F524FB00AA24FB02BB25FB01AA3E
:100F900025FB03BB59F8044B2FFA84F52FFA94F480
:100FA00025FB00CC25FB02EE24FB01CC24FB03EE49
:100FB000D9F8405056F8040B56F8041B56F8042B89
:100FC00056F8043B2FFA85F42FFA95F524FB00AA76
:100FD00024FB02BB25FB01AA25FB03BB59F8044BEC
:100FE0002FFA84F52FFA94F425FB00CC25FB02EEB2
:100FF00024FB01CC24FB03EED9F8405056F8040B37
:1010000056F8041B56F8042B56F8043B2FFA85F4C7
:101010002FFA95F524FB00AA24FB02BB25FB01AAAD
:1010200025FB03BB59F8044B2FFA84F52FFA94F4EF
:1010300025FB00CC25FB02EE24FB01CC24FB03EEB8
:10104000D9F8405056F8040B56F8041B56F8042BF8
:1010500056F8043B2FFA85F42FFA95F524FB00AAE5
:1010600024FB02BB25FB01AA25FB03BB59F8044B5B
:101070002FFA84F52FFA94F425FB00CC25FB02EE21
:1010800024FB01CC24FB03EED9F8405056F8040BA6
:1010900056F8041B56F8042B56F8043B2FFA85F437
:1010A0002FFA95F524FB00AA24FB02BB25FB01AA1D
:1010B00025FB03BB59F8044B2FFA84F52FFA94F45F
:1010C00025FB00CC25FB02EE24FB01CC24FB03EE28
:1010D000D9F8405056F8040B56F8041B56F8042B68
:1010E00056F8043B2FFA85F42FFA95F524FB00AA55
:1010F00024FB02BB25FB01AA25FB03BB59F8044BCB
:101100002FFA84F52FFA94F425FB00CC25FB02EE90
:1011100024FB01CC24FB03EEB8F101083FF7DCAE61
:101120000B9D2E460F9A901E09DC0C9CC2F1020208
:1011300004EB42020C9200F1050005F102050F904C
:1011400000980299049A0C9C4FEA4C0C4FEA4A0A08
:101150005CFB010C5AFB010A4CFA02FC4AFA02FA47
:101160000CF3070C0AF3070A86F800C084F800A005
:1011700001980399059A4FEA4E0E4FEA4B0B5EFB1E
:10118000010E5BFB010B4EFA02FE4BFA02FB0EF363
:10119000070E0BF3070B86F8BDE084F8BDB005F130
:1011A00002030B9309F14009013F7FF48AAECDF8A9
:1011B0002090DDF820902C9EDDE909CE4FF010083C
:1011C00059F8044B56F8040B56F8041B56F8042B38
:1011D00056F8043B2FFA84F52FFA94F425FB00CC43
:1011E00025FB02EE24FB01CC24FB03EEB8F1010841
:1011F000E6DC00980299049A0B9E4FEA4C0C5CFBCB
:10120000010C4CFA02FC0CF3070C86F800C00198A4
:101210000399059A4FEA4E0E5EFB010E4EFA02FE4E
:101220000EF3070E86F8BDE0139B03F180031393C2
:10123000129B159A03F5BD7312930D9A02F10102E8
:101240000D92202AFFF6D8AD002019B0BDE8F08F2E
:101250007047000001490120886070473C00002071
:1012600001490120486070473C000020FEE710B5AE
:10127000806B816B496D022902D0012180F8251015
:1012800000F0DAF810BD10B5846BA26AA06B01689B
:10129000CAB10A68A36A02F40022DB0706D12AB1A8
:1012A000C968E26A01EBC201002207E00A68120382
:1012B00019D40969E26A01EBC201012200F0B3F915
:1012C000A06A401E0EE00868000302D5606BC8608B
:1012D00009E00868000306D4E26A606B00EB820054
:1012E0000861206BA062A06A216B88420BD1206844
:1012F000C16841F00101C16020680068800702D523
:10130000012084F8250010BD014800F0A3B80000BA
:1013100088FA002010B50C4C0A4820604FF4E130E8
:1013200060600020A060E0602061A0610C2060612E
:10133000204602F08FFA2068C16841F02001C160A8
:1013400010BD000000100140ECF90020014800F041
:101350008DBE0000C8FA0020014800F087BE0000E2
:10136000ACFB0020014800F081BE00000CFC002016
:1013700001681823CAB2103AB2FBF3F2054B6FF3BF
:101380000901032A9B5CC36500D9091D81650846D4
:101390007047000064B2000810B5014600208B6958
:1013A0008A6A4FF0C07453B1B3F5005F15D072B1C3
:1013B000012A0CD0022A0AD0032A09D104E01AB16A
:1013C000012A06D0022A03D1C96AC90100D5012029
:1013D00010BDC96AA142FAD010BD002AF7D0012A77
:1013E000F2D0022AF3D0032AF3D010BD10B504685E
:1013F00063608368402B036803D099600068C26013
:1014000010BD9A600068C16010BD30B504682568E1
:1014100025F480252560046863608368402B036899
:1014200003D099600068C26030BD9A600068C160F6
:1014300030BD704772B6FEE7704700000068034990
:10144000884202D10249012008707047000005500F
:101450000C0000202DE9F041044600680569224F88
:1014600069074FF004060BD54661E06B40F00200BF
:10147000E06384F82560A06B0765A06B00F0E3FDD6
:10148000A8070DD5216802204861E06B40F00100FB
:10149000E06384F82560A06B0765A06B00F0D3FDC6
:1014A000E80605D5216810204861204600F05CF868
:1014B000280705D5216808204861204600F0B2F8C9
:1014C000E8070FD020680168890703D5C16821F0BB
:1014D0001E01C1602068C16821F00101C160204681
:1014E000FFF7ACFFBDE8F0816F12000810B50400F3
:1014F00003D094F8250010B104E0012010BD20466F
:1015000000F033F8022084F825002068016840F6D6
:10151000F87291430160616960680843D4E903127D
:1015200011430843A1680843A1690843216A08439D
:1015300021680A68104308606068102808D1A17FFC
:10154000A08B61F31F40E17F40EA01602168886160
:101550002068C16841F01E01C1600020E0630120E5
:1015600084F82500002010BD70477047F8B5044688
:1015700090F82400012827D0012084F824000225B7
:1015800084F8255025682E6846F480462E6025682C
:101590002E6826F002062E6025682E680E432E6007
:1015A000A56B1E49E963A66B1D4DF564A66B00256E
:1015B0003565A56206042563B34207D22168A06B96
:1015C000283100F08DFE1FE00220F8BDA76B796482
:1015D000A062E362626305E0E06A4008E062A06A3C
:1015E0004000A062E06AB042F6D2A06A801EA0620B
:1015F000A06A2063E06A02EB8003E06A0090216841
:10160000A06B283100F016F82068016841F0010154
:10161000016084F824500020F8BD00008712000803
:101620006F1200087047006812B101610020704716
:10163000C160FBE72DE9F84F044600200A9D0090A9
:10164000A0684FF4807A802817D0E06BB8B1606C46
:10165000A8B1E06C98B194F83400012813D00120AF
:1016600084F8340094F835600020012E0DD084F801
:10167000340002200090BDE8F88F504600E0402082
:1016800060650120F7E70220F5E7022684F835605F
:1016900060652068066846F480260660206803615D
:1016A0002B462046FFF7A2FEDFF800844FF4006BC4
:1016B0004FF4001EFE48FD4AFD4BFC4DFC4EFB4F17
:1016C000DFF8ECC3DFF8E4932168483A603318355B
:1016D0001836303F0CF1780C09F13009414534D906
:1016E000814205D0914203D0994201D0A94201D153
:1016F000202125E0B14205D0B94203D0614501D097
:10170000494501D159461BE0DFF8A48308F13008B0
:10171000414511D0DFF89483A8F1180841450BD05A
:10172000DFF88C8308F19008414505D0DFF87C8311
:1017300008F14808414501D1714601E04FF00061D0
:10174000DFF86883A8F14C0839E0DFF8648308F11A
:10175000A808414536D9814205D0914203D099422B
:1017600001D0A94201D1202125E0B14205D0B942E2
:1017700003D0614501D0494501D159461BE0DFF84E
:10178000308308F13008414511D0DFF82083A8F1FB
:10179000180841450BD0DFF8188308F1900841453F
:1017A00005D0DFF8088308F14808414501D17146AA
:1017B00001E04FF00061DFF8F482A8F15008C8F8AA
:1017C000001072E0DFF8E88208F14808414536D998
:1017D000814205D0914203D0994201D0A94201D162
:1017E000202125E0B14205D0B94203D0614501D0A6
:1017F000494501D159461BE0DFF8B48208F13008B1
:10180000414511D0DFF8A482A8F1180841450BD05A
:10181000DFF89C8208F19008414505D0DFF88C8202
:1018200008F14808414501D1714601E04FF00061DF
:10183000DFF87C82A8F11008C8F80C1035E081426E
:1018400005D0914203D0994201D0A94201D1202173
:1018500025E0B14205D0B94203D0614501D04945E8
:1018600001D159461BE0DFF8488208F130084145B4
:1018700011D0DFF83882A8F1180841450BD0DFF805
:10188000308208F19008414505D0DFF8208208F148
:101890004808414501D1714601E04FF00061DFF891
:1018A0001082A8F11008C8F80810DFF8008221683B
:1018B0004FF4806B4FF4801E414534D9814205D0EE
:1018C000914203D0994201D0A94201D1102125E0D3
:1018D000B14205D0B94203D0614501D0494501D19B
:1018E00059461BE0DFF8C88108F13008414511D0A6
:1018F000DFF8B881A8F1180841450BD0DFF8B081B6
:1019000008F19008414505D0DFF8A08108F14808AA
:10191000414501D1714601E04FF08061DFF88C81D3
:10192000A8F14C0839E0DFF8888108F1A8084145A2
:1019300036D9814205D0914203D0994201D0A942C3
:1019400001D1102125E0B14205D0B94203D0614553
:1019500001D0494501D159461BE0DFF8548108F117
:101960003008414511D0DFF84481A8F118084145FD
:101970000BD0DFF83C8108F19008414505D0DFF835
:101980002C8108F14808414501D1714601E04FF032
:101990008061DFF81881A8F15008C8F8001072E0E3
:1019A000DFF80C8108F14808414536D9814205D05D
:1019B000914203D0994201D0A94201D1102125E0E2
:1019C000B14205D0B94203D0614501D0494501D1AA
:1019D00059461BE0DFF8D88008F13008414511D0A6
:1019E000DFF8C880A8F1180841450BD0DFF8C080A7
:1019F00008F19008414505D0DFF8B08008F14808AB
:101A0000414501D1714601E04FF08061DFF8A080CF
:101A1000A8F11008C8F80C1035E0814205D09142B9
:101A200003D0994201D0A94201D1102125E0B14251
:101A300005D0B94203D0614501D0494501D159468D
:101A40001BE0DFF86C8008F13008414511D0DFF869
:101A50005C80A8F1180841450BD0DFF8548008F1EC
:101A60009008414505D0DFF8448008F14808414519
:101A700001D1714601E04FF08061DFF83480A8F1B8
:101A80001008C8F80810DFF8248021684FF4007BA4
:101A90004FF4002E414534D9814205D0914203D004
:101AA000994201D0A94205D1082125E0586402409D
:101AB00010600240B14205D0B94203D0614501D067
:101AC000494501D1594617E0DFF8E08441450FD080
:101AD000DFF8DC8441450BD0DFF8D08408F16008E2
:101AE000414505D0DFF8C88408F16008414501D1BF
:101AF000714601E04FF00071DFF8B484A8F13408BA
:101B000035E0DFF8A88408F17808414532D98142F0
:101B100005D0914203D0994201D0A94201D10821B8
:101B200021E0B14205D0B94203D0614501D0494519
:101B300001D1594617E0DFF8748441450FD0DFF832
:101B4000708441450BD0DFF8648408F1600841459A
:101B500005D0DFF85C8408F16008414501D1714689
:101B600001E04FF00071DFF84884A8F13808C8F8A8
:101B700000106AE0DFF8348408F11808414532D9D2
:101B8000814205D0914203D0994201D0A94201D1AE
:101B9000082121E0B14205D0B94203D0614501D00E
:101BA000494501D1594617E0DFF8008441450FD07F
:101BB000DFF8FC8341450BD0DFF8F08308F16008C3
:101BC000414505D0DFF8E88308F16008414501D1BF
:101BD000714601E04FF00071DFF8D083A8F14008B2
:101BE000C8F80C1031E0814205D0914203D09942EF
:101BF00001D0A94201D1082121E0B14205D0B9426A
:101C000003D0614501D0494501D1594617E0DFF8BD
:101C10009C8341450FD0DFF8988341450BD0DFF816
:101C20008C8308F16008414505D0DFF8848308F112
:101C30006008414501D1714601E04FF00071DFF8C5
:101C40006C83A8F14008C8F80810DFF864832168A5
:101C500008F118084FF4802B4FF0807E41452FD9B2
:101C6000814205D0914203D0994201D0A94201D1CD
:101C7000042120E0B14205D0B94203D0614501D032
:101C8000494501D1514616E0DFF8208341450FD088
:101C9000DFF81C8341450BD0DFF8108308F16008A2
:101CA000414505D0DFF8088308F16008414501D1BE
:101CB000594600E07146DFF8F882A8F1340834E0B4
:101CC000DFF8E88208F17808414531D9814205D032
:101CD000914203D0994201D0A94201D1042120E0D0
:101CE000B14205D0B94203D0614501D0494501D187
:101CF000514616E0DFF8B48241450FD0DFF8B082DC
:101D000041450BD0DFF8A48208F16008414505D0B9
:101D1000DFF89C8208F16008414501D1594600E096
:101D20007146DFF88C82A8F13808C8F8001068E026
:101D3000DFF8788208F11808414531D9814205D091
:101D4000914203D0994201D0A94201D1042120E05F
:101D5000B14205D0B94203D0614501D0494501D116
:101D6000514616E0DFF8448241450FD0DFF840824B
:101D700041450BD0DFF8348208F16008414505D0B9
:101D8000DFF82C8208F16008414501D1594600E096
:101D90007146DFF81882A8F14008C8F80C1030E04E
:101DA000814205D0914203D0994201D0A94201D18C
:101DB000042120E0B14205D0B94203D0614501D0F1
:101DC000494501D1514616E0DFF8E08141450FD089
:101DD000DFF8DC8141450BD0DFF8D08108F16008E5
:101DE000414505D0DFF8C88108F16008414501D1BF
:101DF000594600E07146DFF8B481A8F14008C8F800
:101E00000810DFF8AC81216808F118084FF4803A17
:101E10004FF4800B414527D9814205D0914203D030
:101E2000994201D0A94201D101201AE0B14205D066
:101E3000B94203D0614501D0494501D1402010E0AD
:101E40005A4881420AD05A48814207D057486030E8
:101E5000814203D056486030814201D1504600E0B3
:101E60005846534934392CE0DFF8408108F17808AE
:101E7000414528D9814205D0914203D0994201D0F1
:101E8000A94201D101201AE0B14205D0B94203D0E4
:101E9000614501D0494501D1402010E043488142CD
:101EA0000AD04348814207D040486030814203D085
:101EB0003F486030814201D1504600E058463C49DD
:101EC0003839086056E0DFF8E48008F11808414529
:101ED00028D9814205D0914203D0994201D0A9422C
:101EE00001D101201AE0B14205D0B94203D06145C9
:101EF00001D0494501D1402010E02C4881420AD050
:101F00002B48814207D029486030814203D02848BD
:101F10006030814201D1504600E0584623494039A3
:101F2000C86027E0814205D0914203D0994201D098
:101F3000A94201D101201AE0B14205D0B94203D033
:101F4000614501D0494501D1402010E01748814248
:101F50000AD01748814207D014486030814203D02C
:101F600013486030814201D1504600E058460F4985
:101F7000403988602068016841F0160101602068DE
:101F8000416941F080014161206C08B9A06C20B129
:101F90002068016841F0080101602068016841F093
:101FA000010101600098BDE8F88F00004060024028
:101FB000406402402DE9F0410446876D00F0D8FAF4
:101FC000064694F835000025022806D0802060657A
:101FD00084F834500120BDE8F0812068016821F0C8
:101FE000160101602068416921F080014161206C87
:101FF00008B9A06C20B12068016821F008010160D7
:102000002068016821F0010101600CE000F0B0FAE5
:10201000801B052807D920206065032084F835003F
:1020200084F83450D7E720680068C007EED194F8F0
:102030005C103F208840B860012084F8350084F8A7
:1020400034500020C7E790F83510022903D08021D2
:10205000416501207047052180F83510006801684E
:1020600021F0010101600020704700002DE9F843D4
:1020700004464FF00009CDF8009063484FF4165124
:10208000A56D0068B0FBF1F72E6894F85C1008208D
:1020900000FA01F131420FD021680A6852070BD5CE
:1020A0000A6822F004020A6094F85C108840A86074
:1020B000606D40F00100606594F85C104FF001081D
:1020C00008FA01F0304208D021684969090604D5B0
:1020D000A860606D40F00200606594F85C10042018
:1020E0008840304208D021680968890704D5A86073
:1020F000606D40F00400606594F85C10102088402A
:10210000304218D021680968090714D5A8602068F2
:102110000168490304D50068000308D5A16C07E0F5
:102120000168C90503D4016821F008010160216C30
:1021300009B12046884794F85C102020884030423E
:1021400031D021680968C9062DD5A86094F83500FA
:1021500005282068016806D0490347D500680003B8
:102160001DD4616C1CE021F01601016020684169FA
:1021700021F080014161206C08B9A06C20B1206879
:10218000016821F00801016094F85C103F2088404C
:10219000A86084F8358084F83490216D1FE0E16BED
:1021A00009B120468847606D00282BD0606DC007BC
:1021B00014D0052084F835002068016821F0010161
:1021C00001600098401C0090B84203D82068006865
:1021D000C007F6D184F8358084F83490E16C00298A
:1021E00010D001B02046BDE8F04308470168C9059A
:1021F000D5D4016821F01001016084F8358084F89D
:102200003490CCE7BDE8F883380000202DE9F04198
:10221000044600F0ADF906465CB1022084F83500B2
:10222000002584F834502068016821F00101016024
:102230000DE00120BDE8F08100F09AF9801B05282F
:1022400005D920206065032084F83500F2E7206876
:102250000068C007F0D12268116820480140D4E925
:1022600001031843D4E90336334318436369184321
:10227000A3691843E3691843236A18430843616A52
:10228000042903D1D4E90B131943084310602068D3
:102290004069666A20F0070130460E430127042892
:1022A0000CD1A06A0643E06A40B12046FFF774F8FB
:1022B00020B14020606584F83570BAE72068466137
:1022C0002046FFF755F894F85C203F21914081604B
:1022D000656584F835700020ACE700003F8010F0A1
:1022E0002DE9F0410446866D90F834000025012860
:1022F0000DD0012084F8340094F835700020012FAF
:1023000007D084F8340002252846BDE8F081022079
:10231000FBE7022784F8357060652046FFF775F803
:1023200094F85C103F208840B0602068016841F05C
:1023300016010160206C20B12068016841F008019D
:1023400001602068016841F001010160DCE70000E4
:1023500070B5044600F00CF90546601C02D0044834
:102360000078044400F004F9401BA042FAD370BD89
:102370002C0000202DE9F84FDFF8BCA10022012538
:1023800003264FF00F090AF1040BAAF1040E00BF57
:102390000B6805FA02F42340A34270D10F7907F0CD
:1023A0000307012F01D0022F16D187684FEA420898
:1023B00006FA08FC27EA0C07D1F80CC00CFA08FC56
:1023C0004CEA070CC0F808C04768A7430C79C4F36F
:1023D000001494403C4344600C79E443A4070AD0C1
:1023E000C4684FEA420C06FA0CF7BC438F6807FA40
:1023F0000CF72743C7600C7904F00304022C12D1B8
:10240000D40800EB840CDCF820405707FF0E09FAD3
:1024100007F824EA0804D1F8108008FA07F848EA17
:102420000408CCF8208004684FEA420C06FA0CF746
:10243000BC430F7907F0030707FA0CF7274307603F
:102440004C6814F4403F70D03C4C276847F48047F8
:102450002760246822F0030704F480440094384C79
:1024600007EB040CDCF8084897074FEA177809FADD
:1024700008F7BC43334FB84202D1002724E054E0B0
:10248000314FB84201D101271EE0304FB84201D18F
:10249000022719E02E4FB84201D1032714E02D4F37
:1024A000B84201D104270FE02B4FB84201D10527D4
:1024B0000AE02A4FB84201D1062705E0284FB8426A
:1024C00001D1072700E0082707FA08F72743CCF8CF
:1024D0000878DAF800405746D1F804C09C435FEA18
:1024E000CC2C00D51C433C60DBF800405F46D1F8A3
:1024F00004C09C435FEA8C2C00D51C433C60DEF892
:1025000000407746D1F804C09C435FEA8C3C00D57C
:102510001C433C60084F083F3C68D1F804C09C4312
:102520005FEACC3C00D51C433C60521C102AFFF4EF
:102530002FAFBDE8F88F0000083C0140443802404E
:102540000030014000000240000402400008024048
:10255000000C02400010024000140240001802402B
:10256000001C02400AB1816170470904FBE70000CA
:1025700001488068704700002C00002010B504005E
:1025800013D0242084F83D002068016821F0010167
:102590000160204600F05CFA0020206484F83D00D1
:1025A00044F8300FA073207310BD012010BD90F8C7
:1025B0003D00704770B504001BD094F83D00002525
:1025C00020B984F83C50204600F043FA242084F8D7
:1025D0003D002068016821F00101016000F06EFB00
:1025E0004D4A6168914201D84C4900E04C4988420B
:1025F00001D2012070BD4B492368B0FBF1F15E6848
:1026000026F03F060E435E606368934206D94FF49E
:10261000967359434FF47A73B1FBF3F12368491C65
:102620001E6A26F03F06314319626168914210D854
:102630004900401EB0FBF1F2521CC2F30B02042A07
:1026400001D2042022E0B0FBF1F0401CC0F30B00EB
:102650001CE0A368F3B301EBC10202EB0116421EBA
:10266000B2FBF6F2521C42F48042120549D093B3F9
:1026700001EBC10202EB0111401EB0FBF1F0401C66
:10268000C0F30B0040F4804040F400402168CA6968
:102690004CF6FF739A431043C861D4E9070108431D
:1026A00021680A6822F0C00210430860D4E90301DF
:1026B00001432068826848F2FF339A4311438160E6
:1026C000D4E9050108432168CA6822F0FF021043DB
:1026D000C86001E00EE016E02068016841F00101E9
:1026E00001602564202084F83D00256384F83E5075
:1026F000002070BD01EB4106421EB2FBF6F2521CF7
:10270000B3E70120C2E701EB4101401EB0FBF1F04D
:10271000401CC0F30B00B7E7A086010080841E00B8
:1027200000093D0040420F002DE9FF4F83B09A465B
:10273000DDE9119793460446DDF84080FFF718FF66
:10274000054694F83D00202870D1192301227149D3
:102750002046009501F09EFA0028F5D194F83C003F
:10276000012863D0012084F83C0020680168C90773
:1027700003D1016841F0010101602068016821F482
:1027800000610160222084F83D00402084F83E0072
:1027900000262664C4F82480A4F82A90608D208541
:1027A0005D48E062CDE9007553465A4620460499DB
:1027B00001F08DF900287CD1208DD0B1012821D0E5
:1027C0000228206824D0416980690090208D032868
:1027D00069D801282BD0514902283B464FF000020E
:1027E000009559D08846204601F054FA002860D15F
:1027F0003CE02068416981690091016841F4007101
:10280000016077E02068016821F480610160F0E7F1
:10281000016821F4806101602068016841F4006171
:102820000160206841698069009063E06FE02A469A
:102830003946204601F0ADFA98BB20680069616A0C
:1028400008704EE02068016841F400710160206862
:102850000069616A0870606A401C6062218D491ECF
:102860002185618D491E6185216838E020680168F5
:1028700021F48061016020680069616A0870606A03
:10288000401C6062208D401E2085608D401E60854A
:102890003B46002241460095204601F0FBF900B975
:1028A000D0E706E0FFE72A463946204601F071FAF4
:1028B00018B1012007B0BDE8F08F20680069616A97
:1028C0000870606A401C6062218D491E2185618DFF
:1028D000491E618521684A69D24352070AD40969B1
:1028E0000170606A401C6062208D401E2085608DF2
:1028F000401E6085208D00287FF468AF202084F87A
:102900003D0084F83E6084F83C600020D2E702205D
:10291000D0E70000020010000000FFFF04000100EB
:102920002DE9FF4F83B09A46DDE91197934604469F
:10293000DDF84080FFF71CFE054694F83D00202896
:102940007FD11923012240492046009501F0A2F9C8
:10295000002876D194F83C00012872D0012084F838
:102960003C0020680168C90703D1016841F00101FA
:1029700001602068016821F400610160212084F871
:102980003D00402084F83E0000262664C4F82480E0
:10299000A4F82A90608D20852C48E062CDE900756E
:1029A00053465A462046049901F004F970B930E0C4
:1029B0002A463946204601F01FFA58B1206C0428F7
:1029C00004D12068016841F400710160012007B062
:1029D000BDE8F08F606A216800780861606A401C79
:1029E0006062218D491E89B22185628D521E6285E9
:1029F00022685369DB435B070BD469B1007810612F
:102A0000606A401C6062208D401E2085608D401EE3
:102A10006085208D0028CBD12A463946204601F01A
:102A200013F90028CAD154F83D0B016841F4007134
:102A30000160202004F81E09E67766770020C6E7CB
:102A4000FFE70220C3E70000020010000000FFFFC4
:102A5000704770470248816802781144816070476E
:102A60002C0000200B4810B5016841F40071016092
:102A7000016841F480610160016841F48071016086
:102A8000032000F06FF80F2000F006F800F024F8A3
:102A9000002010BD003C024070B50D4D04464FF4BF
:102AA0007A712878B1FBF0F00A490968B1FBF0F0BF
:102AB00000F079FD48B9102C07D200222146501EA3
:102AC00000F030F800206C6070BD012070BD000087
:102AD0002C000020380000200A4808B5016841F4A5
:102AE00080410160006800F4804000900548001FAC
:102AF000016841F080510160006800F08050009052
:102B000008BD000044380240002809DB00F01F0225
:102B1000012191404009800000F1E020C0F800113F
:102B200070470000F0B40E4B1B680C46C3F3022341
:102B3000C3F10705042D00D90425191D072901D269
:102B4000002300E0DB1E012606FA05F1491E2140A4
:102B500099409E40761E16403143F0BC02F011BAF7
:102B60000CED00E0064900F0070208684FF6FF038D
:102B7000184040EA0220034A1043086070470000F2
:102B80000CED00E00000FA052DE9F0470E460500C7
:102B900065D0DFF81481D8F80000F7B200F0070024
:102BA000B04207D288F80070D8F8000000F00700A3
:102BB000B04254D128683D4C810712D5400703D557
:102BC000206840F4E05020602878000703D5206892
:102BD00040F4604020602068A96820F0F0000843BD
:102BE00020602878C0072DD030496868083901284E
:102BF00012D0022813D0032811D0096889070029B0
:102C00002DDA216821F0030101432160FFF7B0FCB8
:102C1000814641F2883A0EE009688903EFE70968C6
:102C20008901ECE7FFF7A4FCA0EB0901514502D9AB
:102C30000320BDE8F0872068696800F00C00B0EB65
:102C4000810FEFD1D8F80010404601F00701B142E2
:102C500007D90770006800F00700B04201D00120DA
:102C6000E7E72878400705D52068E96820F4E050B8
:102C7000084320602878000706D52068296920F4D9
:102C8000604040EAC100206000F038F82168084A3E
:102C9000C1F30311515CC84006490860064800684A
:102CA000FFF7FAFE0020C4E7003C0240083802406B
:102CB0006CB20008380000203000002004480549AC
:102CC00000680968044AC1F38221515CC84070471A
:102CD00038000020083802407CB20008044805494A
:102CE00000680968044AC1F34231515CC84070472A
:102CF00038000020083802407CB20008154810B5A2
:102D0000006810F00C02144813D01449042A0FD0A4
:102D1000082A0ED10F4C241F2268236802F03F02BC
:102D20005B0207D52068C0F38810A0FB010106E014
:102D3000084610BD2168C1F38811A1FB00010023E2
:102D4000FDF740FA2168C1F30141491C4900B0FB7D
:102D5000F1F010BD083802400024F40040787D01F5
:102D60002DE9F84F04006ED02078DFF84C93C007AF
:102D7000A9F104054AD009F104000168C1F38101F9
:102D8000012908D00068C0F3810002280AD1D9F8CF
:102D90000000400206D52868800337D56068002807
:102DA000E1D033E06068B0F5803F10D0B0F5A02FDF
:102DB000286810D020F480302860286820F4802013
:102DC00028606068A8B1FFF7D3FB06460DE02868CD
:102DD00040F48030F4E740F480202860F7E700BF3B
:102DE000FFF7C6FB801B642873D828688003F7D5DB
:102DF0000CE0FFF7BDFB064605E000BFFFF7B8FBA0
:102E0000801B6428F0D828688003F7D42078DFF886
:102E1000AC8280074FF0000A3ED5A748001D01682C
:102E200011F00C0F08D00068C0F3810002280BD10C
:102E3000D9F80000400207D42868800716D5E0685A
:102E4000012800D112E033E1E068B8B10120C8F8F0
:102E50000000FFF78DFB064605E000BFFFF788FB8B
:102E6000801B0228C0D828688007F7D52868216908
:102E700020F0F80040EAC10028600DE0C8F800A08A
:102E8000FFF776FB064604E0FFF772FB801B022883
:102E90001FD828688007F7D42078000722D5864FEE
:102EA00087486169703771B101210160FFF760FBEC
:102EB000064604E0FFF75CFB801B022809D838684F
:102EC0008007F7D50EE0C0F800A0FFF751FB0646DB
:102ED00005E082E0FFF74CFB801B02287DD83868B4
:102EE0008007F7D42078400768D5DFF8CCB10027F9
:102EF0000BF13C0BDBF80000C0000BD4DBF800103A
:102F000041F08051CBF80010DBF80000012700F001
:102F1000805000906B4E3068C00510D4306840F48B
:102F200080703060FFF724FB009005E0FFF720FB86
:102F30000099401A022850D83068C005F6D55E4E78
:102F4000A0686C3601280FD00528306810D020F01A
:102F500001003060306820F004003060A068B8B133
:102F6000FFF706FB00900FE0306840F00100F4E747
:102F700040F004003060F7E7FFF7FAFA0099411AD1
:102F800041F28830814266D830688007F4D50EE07F
:102F9000FFF7EEFA009007E0FFF7EAFA0099411A0E
:102FA00041F28830814256D830688007F4D42FB17E
:102FB000DBF8001021F08051CBF80010A069C8B3F5
:102FC0003D49091D0968C1F3810102294AD002283F
:102FD000504607D0C8F8600000E03CE0FFF7C8FAB0
:102FE00004463BE04746C8F86000FFF7C1FA0646D2
:102FF00005E000BFFFF7BCFA801B02282BD8286829
:103000008001F7D4D4E907010843A16A2E4A490890
:1030100002EB0141626A41EA8211084394F82C10E4
:1030200040EA0161C9F8001001203866FFF7A0FAF4
:10303000044606E03EE000BFFFF79AFA001B0228B4
:1030400009D828688001F7D534E000BFFFF790FA6F
:10305000001B022802D90320BDE8F88F28688001F0
:10306000F4D427E00128F7D0D9F80000E26900F491
:10307000800191421CD1226A00F03F01914217D198
:1030800047F6C071626A0140B1EB821F10D1A26A9B
:103090004FF0FF3300F4403103EB5202B1EB024F2B
:1030A00006D194F82C1000F07060B0EB016F01D0E5
:1030B0000120D1E70020CFE704380240000047425A
:1030C000800E4742007000400000FFFF10B5FEF781
:1030D000BFF810BD704770B50446B0F85000002529
:1030E0000104206801F096F918B1A16B0143A163B6
:1030F00004E00021206801F06CF90546C5F3432087
:1031000070BD0000F8B5056B04460068416B09040A
:103110001BD5290719D5D4E90A56002E14D000274B
:10312000206801F05FF905F8010B010A05F8011BA1
:10313000010C05F8021B000E361F7F1C05F8010C60
:10314000082FEDD3C4E90A56F8BD416B4FF00006D5
:10315000C9054FF0010744D5390281632068C16B6E
:103160004CF23A329143C1632068C16A21F00101F7
:10317000C16228071DD515F0220F09D0206801F083
:1031800063F928B1A16B0143A1632046FFF7A2FFB9
:10319000216840F23A50886384F834702663A807A7
:1031A00003D0204600F0B2F8F8BD204600F0B2F897
:1031B000F8BD2806FCD5A80609D5206801F044F919
:1031C00028B1A16B0143A1632046FFF783FFA80745
:1031D000EED12068C16A21F00801C16284F8347020
:1031E000E3E7416B490424D5290722D5D4E90856E1
:1031F000002EDDD05FF0000715F8010B009015F8E8
:10320000011B361F40EA0120009015F8021B40EA1E
:103210000140009015F8011C40EA016000906946E9
:10322000206801F0F2F87F1C082FE5D3C4E90856A6
:10323000F8BD416B40F23A221142F9D0416B890747
:1032400003D5A16B41F00201A163416B090703D5CE
:10325000A16B41F00801A163416B890603D5A16B05
:1032600041F02001A163416BC90603D5A16B41F078
:103270001001A163416B890503D5A16B41F00801E1
:10328000A16340F23A7181632068C16B40F23A3227
:103290009143C163206801F0D7F8A16B0843A06394
:1032A000280706D584F8347026632046FFF712FFFE
:1032B000F8BD2806FCD515F0300F0CD0E16B114895
:1032C0000865E06BFEF7BFFE0028F1D0E06BBDE8BB
:1032D000F84001F085B9A8070CD0216C0A480865B0
:1032E000206CFEF7B0FE0028E2D0206CBDE8F8406C
:1032F00001F054B9A66384F8347026632046FFF7C2
:10330000E5FEF8BDE14500089D45000810B5FDF754
:10331000A1FF10BD10B5FDF7A3FF10BD70B50400EF
:1033200009D0606A002540B125616561A56294F805
:10333000510040B10CE0012070BD6068B0F5827FA3
:10334000F4D0E561F2E784F85050204600F044F8EC
:10335000022084F851002068016821F040010160DA
:10336000A088218900F4827001F404410843A189F6
:1033700001F400610843217C01F002010843217D32
:1033800001F001010843218B01F400710843217F02
:1033900001F03801084394F8201001F0800108433F
:1033A000218D01F40051084321680860A0690421BF
:1033B00001EA104094F8241001F01001084321683C
:1033C00048602068C16921F40061C1616565012020
:1033D00084F85100002070BD10B586B00446142159
:1033E0006846FCF739FF13492068884220D112480B
:1033F0000021026842F480520260006800F48050AC
:1034000005900D481438026842F00102026000681D
:1034100000F001000590A02000900220CDE90101FC
:10342000032003900520049069460448FEF7A2FF9C
:1034300006B010BD00300140443802400000024098
:103440002DE9F84F984616468A460446FFF790F84D
:10345000814694F8510001281ED1BAF1000F73D0B3
:10346000002E71D094F85000012815D0012784F85F
:103470005070032084F8510000256565C4F830A021
:10348000A686E686A563A587E58765642564A068AA
:10349000B0F5004F03D00CE00220BDE8F88F2068A3
:1034A000016821F0400101602068016841F4804119
:1034B000016020680168490603D4016841F04001B9
:1034C0000160E068B0F5006F606803D048B3012E7A
:1034D00027D047E008B1012E1FD1206B216800885A
:1034E000C86006E020688168890709D5216B0988D2
:1034F000C160206B801C2063E08E401EE0860CE0E3
:10350000FFF736F8A0EB0901414503D3B8F1FF3FBF
:1035100003D035E0B8F1000F32D0E08E0028E1D1C1
:1035200023E0206B21680078087306E0206881683A
:1035300089070AD5216B09780173206B401C206331
:10354000E08E401EE0860DE02BE0FFF711F8A0EBC7
:103550000901414503D3B8F1FF3F03D010E0B8F1B2
:10356000000F0DD0E08E0028E0D14A4641462046AB
:1035700001F058F808B120206065A06830B109E07A
:1035800084F8517084F85050032086E72068C168A1
:103590008068009084F8517004F8505F60680028DB
:1035A000F3D0012079E710B5401EB0F1807F01D340
:1035B000012010BD4FF0E02460610F21601701F081
:1035C000E0FC0020A06107202061002010BD7047B2
:1035D00070470000F8B5016804460868CA684B697E
:1035E00010F00F0F4FF0000559D003F0010602F460
:1035F0009077374365D0C10705D0D10503D5616CFD
:1036000041F001016164410705D5D90703D0616C20
:1036100041F002016164810705D5D90703D0616CCF
:1036200041F004016164010707D502F02001314334
:1036300003D0616C41F008016164616C00293AD0EB
:10364000800604D5900602D5204601F04DFB206887
:103650004069616CC0F38010090700D460B3204654
:1036600001F01BFB20684069400621D5206814301A
:1036700050E8001F21F0400140E80012002AF5D177
:10368000E06BA8B172490165E06BFEF7DCFC002835
:1036900011D0E06B016D01B0BDE8F0400847830632
:1036A0000FD593060DD52046BDE8F84001F01CBBB0
:1036B0002046FFF78DFFF8BD2046FFF789FF6564C0
:1036C000F8BD266B2023012E7ED1C6067CD5D606FA
:1036D0007AD508684868009048694FF002064006AD
:1036E0004DD5E26B106840684FF480770004000C01
:1036F0003AD0A18D814237D9E085D069B8422DD02A
:1037000020680C3050E8001F21F4807140E800125E
:10371000002AF5D12068143050E8001F21F0010183
:1037200040E80012002AF5D12068143050E8001F4C
:1037300021F0400140E80012002AF5D184F842301F
:10374000256320680C3050E8001F21F0100140E88C
:103750000012002AF5D1E06BFEF72CFC6663A08D09
:10376000E18D401A81B206E0A18D8142A8D1D069D5
:10377000B842A5D166632046FFF729FFF8BDA08DAA
:10378000E18D401A81B2E08D0028F7D00029F5D0F4
:1037900020680C3050E8002F22F4907240E8002797
:1037A000002FF5D12068143050E8002F22F00102DC
:1037B00040E80027002FF5D184F8423025632068C7
:1037C0000C3050E8002F00E006E022F0100240E844
:1037D0000023002BF3D1CDE705062BD5150629D5FF
:1037E00094F841002128C9D1A068B0F5805F01D1CB
:1037F0002069B0B1206A411C2162216800784860CC
:10380000E08C401E0004000CE084B7D12068C16841
:1038100021F08001C1602068C16841F04001C160B1
:10382000F8BD206A0088C0F308004860206A801C48
:103830002062E5E74006F3D55006F1D5CA68204678
:1038400022F04002CA6084F8413000F0C8F8F8BDA8
:103850008D4C000870B5040004D094F84100002598
:1038600010B106E0012070BD84F84050204600F001
:1038700023F8242084F841002068C16821F4005115
:10388000C160204601F092FA2068016921F490415C
:1038900001612068416921F02A0141612068C16805
:1038A00041F40051C1606564202084F8410084F82F
:1038B00042006563002070BD30B51E4887B00168C6
:1038C00041F010010160006800F0100005901948F7
:1038D0001438016841F001010160016801F0010143
:1038E0000591016841F0010101600068072400F0C2
:1038F000010005904FF4007000900220019001201B
:1039000002900320CDE903040B4D69462846FEF7DB
:1039100031FD28150090694604942846FEF72AFDDB
:10392000012200212520FFF7FDF82520FFF7ECF804
:1039300007B030BD443802400000024070472DE916
:10394000F843044690F84100984616460D46202854
:1039500002D00220BDE8F88385B17EB1002060640A
:10396000212084F84100FEF703FEA6848146E68408
:10397000A0682027B0F5805F02D003E00120E9E7CE
:10398000206910B12E4600250EE000260CE08021B3
:10399000204601F091FAA8B9C6B116F8010B2168CA
:1039A0004860E08C401EE084E08C4B464FF0000203
:1039B000CDF800800028EAD14FF04001204601F008
:1039C0007BFA40B184F841700320C3E735F8020B5D
:1039D000C0F30800E3E784F841700020BAE77047BD
:1039E000FEE7000030B5294887B00024016841F4A3
:1039F00000110160006800F40010059023481038A1
:103A0000016841F002010160016801F002010591C5
:103A1000016841F00201016000681D4D00F00200E4
:103A200005904FF480700090122001900320CDE9A2
:103A300002400420049069462846FEF79BFC681566
:103A4000009069462846FEF795FC1248FEF7AFFD48
:103A5000002819D10D482038016841F40011016097
:103A6000016821F4001101600A480B490160091442
:103A700001610A494461C0E90114C4610462FE2184
:103A80008461C160FEF796FD07B030BD403802404A
:103A90000004024034FA002000540040C0450400F5
:103AA00001684A69D24352050FD46FF480624A61BB
:103AB000002140F8301F202242738173026942F0D6
:103AC00004020261017301207047002070472DE954
:103AD000F84F0446006889460B9D016898461746D2
:103AE00041F4806101602068016841F480710160E7
:103AF00000954FF0011A0022514620460A9B00F023
:103B0000C9F8002853D1216809F0FE0008610AF1C4
:103B1000010B2B46594620460A9A00F0EFF8F0BBFD
:103B200020684169806900902A4620460A9900F081
:103B300063F940B1206C042839D12068016841F450
:103B40000071016033E0FEB2B8F1010F09D02168C5
:103B5000380A08612A4620460A9900F04DF90028E3
:103B6000E8D1206806612A4620460A9900F044F907
:103B70000028DFD12068016841F480710160009560
:103B80000022514620460A9B00F084F838B921688B
:103B900009F0FF0040F0010008612B4600E006E05C
:103BA000594620460A9A00F0A9F8002800D00120C2
:103BB000BDE8F88F2DE9F843044600680D46DDE9BD
:103BC000089701689846164641F4807101604B469B
:103BD00000224FF001112046009700F05BF8E0B999
:103BE000216805F0FE0008613B464A46154920461B
:103BF00000F084F888B920684169806900903A46ED
:103C00004946204600F0F8F850B1206C042804D151
:103C10002068016841F4007101600120BDE8F8836B
:103C2000F5B2B8F1010F09D02168300A08613A46AF
:103C30004946204600F0E0F80028E6D120680561FA
:103C40000020EBE70200010070B516460D46044661
:103C50000DE02046FFF724FF08B1012070BD681C6D
:103C600005D0FEF785FC801BA84207D835B1206837
:103C70004069C0434007ECD4002070BD002044F8E8
:103C8000300F20216173A073216941F0200121616F
:103C90002073E2E72DE9F0471E4690460D460446A4
:103CA000C1F30747DDF8209008E0701C06D0FEF74E
:103CB0005FFCA0EB0900B0420FD876B12068012F5D
:103CC00018D0806925EA00000004000C14D00021FF
:103CD0004145EAD00020BDE8F087002044F8300FCD
:103CE00020216173A073216941F0200121612073BB
:103CF0000120F0E74069E5E70121E9E72DE9F04718
:103D00009A4691460E46044600254FF02008C1F31E
:103D1000074725E020684069C043400514D4206867
:103D2000016841F40071016021686FF480604861AE
:103D3000256384F83D8084F83E50206C40F00400F8
:103D4000206484F83C501FE0B9F1FF3F08D0FEF733
:103D50000FFCA0EB0A0149450CD8B9F1000F09D0BE
:103D60002068012F13D0806926EA00000004000CAF
:103D70000BD0CFE744F8305F84F80D80A57320693D
:103D800040F02000206125730120BDE8F0874069E4
:103D9000EAE72DE9F041002590460E46044620272B
:103DA00017E04069C043C0060CD454F8301B6FF0D4
:103DB0001000486144F810596777A577206A20629F
:103DC000257717E0FEF7D4FBA0EB0800B04208D837
:103DD0003EB120684169C9434906E2D40020BDE8EC
:103DE000F08144F8305F6773A573206940F02000CC
:103DF000206125730120F2E770B516460D46044692
:103E00000DE02046FFF74CFE08B1012070BD681C94
:103E100005D0FEF7ADFB801BA84207D835B120685E
:103E20004069C0430006ECD4002070BD002044F877
:103E3000300F20216173A073216941F020012161BD
:103E40002073E2E710B50348FEF798FBBDE8104089
:103E5000FFF7C8BD34FA00200D4808B5016841F4E9
:103E6000800101600068002200F48000009011468B
:103E70003B20FEF757FE3B20FEF746FE0022114690
:103E80004520FEF74FFEBDE808404520FEF73CBE4A
:103E900030380240F0B587B014216846FCF7DCF9F1
:103EA00029480024016841F004010160016801F023
:103EB00004010591016841F080010160016801F091
:103EC00080010591016841F001010160016801F084
:103ED00001010591016841F008010160016801F0EC
:103EE00008010591016841F002010160016801F0DB
:103EF00002010591016841F0200101600068134E44
:103F000000F0200040F608150590012229463046B1
:103F1000FEF728FB0E4F012202213846FEF722FB56
:103F200000950125CDE90154694630460394FEF71A
:103F300021FA02200090CDE90154694638460394E5
:103F4000FEF718FA07B0F0BD30380240000002401A
:103F5000000C0240114810B50F4901604FF4827106
:103F600041604FF4004181600021C1604FF4007254
:103F70000161C0E905120822C0E90721416281629E
:103F80000A21C162FFF7CAF9002803D0BDE810403A
:103F9000FDF750BA10BD00000030014094F9002038
:103FA000FEE7FEE7F8B507461E480E460025016805
:103FB00041F48001016000681C4C00F48000009016
:103FC000194820604FF00070C4E90105C013C4E92E
:103FD0000350800060614000A0614011E061400238
:103FE0002062042060620320A0624FF08070C4E968
:103FF0000B05A4F1400000228463A0630521392051
:10400000FEF790FD3920FEF77FFD2046FEF7FEF813
:1040100001B033463A46A4F14000BDE8F04000212B
:10402000FDF7A4BA3038024028640240C8FA0020E4
:104030002DE9F0476A4886B0016841F0040101604B
:10404000016801F004010591016841F0020101607D
:10405000016801F002010591016841F00101016070
:10406000016801F001010591016841F00101016061
:10407000016801F001010591016841F0040101604E
:10408000016801F004010591016841F0040101603B
:10409000016801F004010591016841F0040101602B
:1040A000016801F004010591016841F0040101601B
:1040B000016801F004010591016841F010010160FF
:1040C000016801F010010591016841F002010160F1
:1040D000016801F002010591016841F010010160E1
:1040E000016801F010010591016841F010010160C3
:1040F0000068012500F0100005904FF4806603244D
:10410000CDE90065CDE9025469463648FEF732F93B
:1041100034481830066080270220CDE90254CDE9EA
:104120000070DFF8C4A00D24694604945046FEF7E1
:1041300021F9DFF8B8904FF0100869464846CDF8ED
:1041400000800494FEF716F940266946484600961A
:104150000494FEF70FF9DFF89890694648460096F8
:104160000494FEF707F96946484600970494FEF761
:1041700001F928020090694604944846FEF7FAF8CF
:1041800068020090694604944846FEF7F3F8194F18
:1041900069463846CDF800800494FEF7EBF869468E
:1041A000504600960494FEF7E5F8202000906946FA
:1041B00004943846FEF7DEF86946384600960494C3
:1041C000FEF7D8F80095694648460195FEF7D2F803
:1041D000002201214846FEF7C5F906B0BDE8F08788
:1041E0003038024000140240000402400000024047
:1041F000000802400010024038B5154900200A6846
:1042000042F001020A600968134C01F001010091BB
:104210001049C4E900102021C4E902102061606146
:10422000A0612046FDF762F9002205214E20FEF72D
:1042300079FC4E20FEF768FC2068C16841F001015E
:10424000C160BDE838404FF4C4610448FFF7AABE1E
:10425000343802400000055088FA0020E0B8002001
:1042600070B5820701D0012070BD8A0701D00220FD
:1042700070BD84088D080021FF2000F091F8042112
:10428000E02000F08DF80021502000F089F8E1B224
:104290005A2000F085F8E9B25B2000F081F8042193
:1042A000C4F3012001EA951101435C2000F078F885
:1042B0000021E02000F074F8002070BD10B5044625
:1042C0000121FF2000F06CF81C2000F00FF8207096
:1042D0001D2000F00BF860700A2000F007F8A070B5
:1042E0000B2000F003F8E07010BD00001FB50021A6
:1042F0008DF80C104FF47A73012203A98DE80E009B
:104300001346024660210548FEF70EFA08B1FFF792
:1043100099FD9DF80C0004B010BD000034FA002097
:1043200010B50121FF2000F03BF88021BDE81040CE
:10433000122000F035B8000070B5FFF7F1FF164C01
:10434000002500BF04EB4500417814F8150000F08B
:1043500027F86D1CDD2DF5D35FF0000504EB45005B
:10436000417814F8150000F01BF86D1CDD2DF5D315
:104370005FF0000504EB4500417814F8150000F0EB
:104380000FF86D1CDD2DF5D3044841880088BDE889
:104390007040FFF765BF0000D4AD00082600002084
:1043A00013B584B04FF47A73012205A98DE80E008D
:1043B0001346024660210548FEF7B2FA040001D018
:1043C000FFF740FD06B0204610BD000034FA002083
:1043D00070470844406970470148FEF793BE0000EB
:1043E00028FB0020D0F8800070470A688260D1E97D
:1043F00001231A43D1E903310B43C1681A436FF318
:104400000B011143C160002070470968C0F880109B
:104410000020704710B585B004460D20CDE900108E
:1044200040200290002003904FF480600490694681
:104430002046FFF7DAFF41F288320D21204600F0D6
:104440001DF805B010BD000010B585B00446002170
:104450000C20CDE900104020CDE9020100010490BC
:1044600069462046FFF7C1FF034A0C21204600F0B1
:1044700005F805B010BD000000E1F505454B10B58D
:104480001B684FF4FA54B3FBF4F353435B1E02D2A0
:104490004FF0004010BD426B12F0450FF6D01205F0
:1044A000F4D4426B520703D504218163084610BD42
:1044B000426BD20702D00121816305E0C5228263ED
:1044C0000269D2B28A4201D0012010BD0021FFF75B
:1044D00080FF3149084201D1002010BD002802DAD6
:1044E0004FF0007010BD410001D5402010BD81008B
:1044F00001D5802010BDC10002D54FF4807010BDE1
:10450000010102D54FF4007010BD410102D54FF4F6
:10451000806010BDC10102D54FF4006010BD0102E2
:1045200002D54FF4805010BD410202D54FF4005027
:1045300010BD810202D54FF4804010BDC10202D5EA
:104540004FF4004010BD410302D54FF4003010BDC0
:10455000810302D54FF4802010BDC10302D54FF472
:10456000002010BD010402D54FF4801010BD41049D
:1045700002D54FF4001010BD810402D54FF4800025
:1045800010BD000702D54FF4000010BD4FF480307D
:1045900010BD00003800002008E0FFFD10B5846B5E
:1045A00040F23A50216888632046FEF794FD0121CD
:1045B00084F8341000212163062801D0052805D194
:1045C0002068FFF741FFA16B0843A063A06B0028A0
:1045D000204602D0FEF77EFD10BDFEF777FD10BD30
:1045E00010B5846B40F23A50216888632046FEF78C
:1045F00072FD012184F8341000212163062801D0C6
:10460000052805D12068FFF71FFFA16B0843A063B1
:10461000A06B0028204602D0FEF75CFD10BDFEF71F
:1046200055FD10BDF8B515460E460B4600920446E2
:104630000122022100F02CF8A0B9134813490068A8
:10464000B0FBF1F04FF47A71484300906068B0F528
:10465000827F0DD13346002280212046009500F054
:1046600017F870B1606D40F0200060650320F8BD60
:10467000009830B1401E009020688068C04300065A
:10468000F6D50020F8BD00003800002000366E018D
:104690002DE9F8431E46914688460446089DFDF7DD
:1046A00067FF401B351AFDF763FF07462648006881
:1046B000C0F3CB3068430AE0701C09D0FDF758FF07
:1046C000C01BA8420FD275B10098B8B3401E00902D
:1046D0002068816838EA010033D000214945EBD1D8
:1046E0000020BDE8F8832068416821F0E0014160C6
:1046F0006068B0F5827F0BD1A068B0F5004F02D0A2
:10470000B0F5806F04D12068016821F0400101609C
:10471000A06AB0F5005F09D12068016821F400515A
:1047200001602068016841F400510160012084F8B3
:104730005100002084F850000320D2E7FFE7002555
:10474000C6E70121CAE70000380000202DE9F84F34
:104750001E46DDF828A014460D460746F02836D23E
:10476000F02D34D23819A0F10109B9F1F00F2EDA89
:10477000A819A0F10108B8F1F00F28DADFF854B059
:10478000002208215846FDF7EDFE1FFA88F31FFAB4
:1047900089F22946384600F061F904FB06F5002449
:1047A0000EE000BF3AF814000221000A8DF8000064
:1047B0001AF814008DF80100684600F0C1F9641C75
:1047C000AC42EFD3012208215846FDF7CBFEBDE8ED
:1047D000F88F0000000002402DE9F05F0C4606460D
:1047E000181B1546002800DCE01AA91B002900DC74
:1047F000711B884207DD304626461D464FF00108F2
:104800000446134601E04FF00008AE4205D9304699
:104810002E46054620461C460346A81B0FFA80F983
:10482000181B002800DCE01A0FFA80FB09EBD97096
:1048300047109C4201D2012001E04FF0FF30824638
:1048400018E000BF0A9AB8F1000F02D031462046A6
:1048500001E02146304600F011F8A7EB0B0007B24B
:10486000002F05DA04EB0A0084B207EB090007B257
:10487000761CB6B2AE42E5D9BDE8F09F38B5144615
:10488000F02819D2F02917D20B46024600F0E6F8BC
:10489000200A8DF800008DF80140084C0022082104
:1048A0002046FDF75FFE0221684600F049F901222B
:1048B00008212046FDF756FE38BD000000000240EA
:1048C0002DE9F8430546EF2300211A46084600F07B
:1048D000C5F8DFF84480002208214046FDF742FE7B
:1048E00000242E0AEFB200258DF800608DF80170CB
:1048F0000221684600F024F96D1CADB2F02DF3D30F
:10490000641CA4B2F02CEED34046BDE8F84301226B
:104910000821FDF727BE0000000002407FB50A20F5
:10492000FDF716FD424D4FF48074002221462846C3
:10493000FDF718FE0A20FDF70BFD0122214628464F
:10494000FDF710FE1420FDF703FD3A2000F0DAF821
:10495000552000F027F9B22000F0D4F835A1D1E9B4
:104960000001CDE900010521684600F0E9F80220C8
:1049700000F0B0F8B72000F0C5F8352000F012F9CB
:10498000BB2000F0BFF8192000F00CF9C02000F0A7
:10499000B9F82C2000F006F9C22000F0B3F801208D
:1049A00000F000F9C32000F0ADF8122000F0FAF892
:1049B000C42000F0A7F8202000F0F4F8C62000F092
:1049C000A1F80F2000F0EEF8D02000F09BF8A42012
:1049D00000F0E8F8A12000F0E5F8E02000F092F8FF
:1049E00016A00FC88DE80F000E21684600F0A8F849
:1049F000E12000F087F815A10FC98DE80F000E2106
:104A0000684600F09DF8212000F07CF8112000F0AD
:104A100079F8132000F076F8292000F073F832209E
:104A2000FDF796FC04B00020BDE87040FFF748BFDA
:104A3000000002400C0C003333000000D0040D11C4
:104A4000132B3F544C180D0B1F230000D0040C11E6
:104A5000132C3F44512F1F1F202300002DE9F84342
:104A6000DFF86C8015460E4607461C4600220821DA
:104A70004046FDF777FD2A2000F044F8380A8DF80B
:104A800000008DF80170280A8DF802008DF803509F
:104A90000421684600F054F82B2000F033F8300A67
:104AA0008DF800008DF80160200A8DF802008DF865
:104AB00003400421684600F043F82C2000F022F85F
:104AC0004046BDE8F84301220821FDF74BBD000038
:104AD0000000024010B50446362000F013F854B12F
:104AE000012C0AD0022C0AD0032C0AD16020BDE888
:104AF000104000F057B8C020F9E7A020F7E70020E9
:104B0000F5E710BD31B50C4C002208212046FDF719
:104B100029FD0022E1142046FDF724FD4FF0FF336C
:104B2000012269460548FEF78BFC01220821204638
:104B3000FDF718FD38BD00000000024094F9002088
:104B40002DE9F047154F0C4606460022082138464D
:104B5000FDF708FD0122D1023846FDF703FD4FF4B1
:104B600080384FF6FF794FF0FF3A0DE0444501D30E
:104B7000484600E0204685B253462A46314608485A
:104B8000FEF75EFC2E44641B002CEFD13846BDE8D6
:104B9000F04701220821FDF7E5BC000000000240BB
:104BA00094F9002031B50C4C002208212046FDF775
:104BB000D9FC0122D1022046FDF7D4FC4FF0FF338F
:104BC000012269460548FEF73BFC012208212046E8
:104BD000FDF7C8FC38BD00000000024094F9002039
:104BE0007047FDF737BF000030B593B030216846FD
:104BF000FBF732FB14210CA8FBF72EFB1D48002508
:104C0000016841F080510160006800F0805011900F
:104C10001948016841F4804101600068022400F4F1
:104C2000804011900120039010200490009406947D
:104C30000820CDE90750A820CDE9090404200B90F5
:104C40006846FEF78DF808B172B6FEE70CA90F2092
:104C500081E831004FF4A0500F904FF48050109035
:104C600005210CA8FDF790FF002801D072B6FEE7E1
:104C700013B030BD40380240007000400248016867
:104C800041F470010160704788ED00E010B5806B61
:104C90000021C185FEF79CFC10BD01680C3151E874
:104CA000002F22F4907241E80023002BF5D1016817
:104CB000143151E8002F22F0010241E80023002BBB
:104CC000F5D1016B012909D101680C3151E8002FA0
:104CD00022F0100241E80023002BF5D1202180F8BA
:104CE000421000210163704708B590F84210222954
:104CF00001D0022008BD82684FF480539A4201D14E
:104D0000016921B1816A9A421BD04AB10AE0026866
:104D1000816A5268C2F308020A80816A891C08E02D
:104D2000026972B10268526802F07F020A70816AF9
:104D3000491C8162C18D491E0904090CC18503D03B
:104D40001BE002685268F1E70168CA6822F020029D
:104D5000CA600168CA6822F48072CA6001684A6940
:104D600022F001024A61202180F8421000214163B3
:104D7000026B012A03D0FEF7E1FD002008BD0163AC
:104D800001680C3151E8002F22F0100241E80023A5
:104D9000002BF5D101680A68D20602D50A68496875
:104DA0000091818DFEF713FCE7E7000070B5044623
:104DB00000680169E26821F44051114301612169F1
:104DC000A068E26908436169114308432168CA6821
:104DD00049F20C639A430243CA6020684169A269A0
:104DE00021F440711143416131492068884202D069
:104DF0003049884202D1FDF771FF01E0FDF75EFF07
:104E0000E2690023192164253226B2F5004F626859
:104E100028D0A0FB0101930F9200FBF7D3F90146C4
:104E2000B0FBF5F06FF01802504301EB800006EB89
:104E30000010B0FBF5F000F0F002B1FBF5F002EB72
:104E40000012B1FBF5F06FF01803584301EB80003E
:104E500006EB0010B0FBF5F000F00F0021681044E5
:104E6000886070BDA0FB010192185B41FBF7AAF9B5
:104E70000146B0FBF5F00201B1FBF5F06FF018034D
:104E8000584301EB800006EBC000B0FBF5F000F0EA
:104E9000F80002EB4002B1FBF5F0584301EB800053
:104EA00006EBC000B0FBF5F000F00700D6E700000D
:104EB00000100140001401402DE9F84398461746C0
:104EC0000D460446089E24E0701C22D0FDF750FBDE
:104ED000A0EB0800B0421AD8CEB12068C1684907DB
:104EE00017D5802D15D0402D13D00168C94309076F
:104EF0000FD401680025406800902046FFF7CDFEE2
:104F00000820606484F840500120BDE8F883032045
:104F1000FBE72068006835EA000004D00020B842B2
:104F2000D2D00020F1E70120F9E700000148FEF7A8
:104F300051BB0000ECF90020FEE700000FB4054B68
:104F400010B503A9044A029800F0E8FB10BC5DF814
:104F500014FB0000FD900008F04200204100080210
:104F600018BF04200A0E18BF40F001004FF07F4226
:104F700032EA010108BF40F00200012808BF052005
:104F800070470907090E002804DB00F1E02080F8D3
:104F90000014704700F00F0000F1E02080F8141DAD
:104FA0007047000010B510EE104A4FF019406849E4
:104FB000002200EB44002DED028B884257D8DFED34
:104FC000650A14F0004F60EE200A14BFBEEE001A0E
:104FD000B6EE001A71EE200AFDEEE00A10EE900A1D
:104FE00000EE900AF8EEE00A9FED5B1A00EEC10AAF
:104FF0009FED5A1A00EEC10ADFED590A9FED591ACA
:1050000000EE201ADFED580A40EE010A9FED571A14
:10501000574B00F0030100EE201A21EE000A7B44FA
:1050200003EB8103D3ED000A524B7B4403EB810376
:1050300093ED001A504B41EE000A7B4403EB8101D3
:10504000801091ED000A70EE800AEABB00EE100AB3
:10505000B8EEC01ADFED491A9FED490ABDEC028B8C
:1050600001EE210ABCEEC00A20EE200A10BD4FF06E
:10507000FF40A0431BD04FF0CE40B0EB440F82BFA7
:10508000B7EE000ABDEC028B10BD3E48B0EB440FFA
:1050900028BF012293D2022000F09CF814F0004FA8
:1050A00015D0BDEC028BBDE8104000F07BB814F5C4
:1050B000000F02BF9FED340ABDEC028B10BDBDECAA
:1050C000028BBDE8104000E007E000F05FB8BDECE7
:1050D000028BBDE8104000F05DB800EBD0735910B2
:1050E0004FF07E5202EBC15100EE101AA0EB6300AC
:1050F00002EBC05060EE200A00EE100A20EE208A7B
:1051000018EE100A88B118EE100AB0F1FF4F15D052
:1051100018EE100AFFF722FF042808BF00F042F83B
:10512000B0EE480ABDEC028B10BD022000F052F830
:10513000BDEC028BBDE8104000F034B8022000F056
:1051400049F8BDEC028BBDE8104000F023B8000028
:105150000000501E3BAAB8400070313EF4FD0537F8
:1051600012BB2A3D12BB2A3EFFFFFF3EFFFF7F3FDF
:1051700042B6000046B6000016B600000000004B24
:1051800000007E4E0000A0850000000030EE000A06
:10519000704700009FED020A20EE000A70470000F1
:1051A000000000709FED020A20EE000A7047000028
:1051B0000000001002E008C8121F08C1002AFAD13E
:1051C00070477047002001E001C1121F002AFBD187
:1051D000704700000149086070470000F442002059
:1051E00010B54169044688472069A04200D10020DB
:1051F00010BD00002DE9F04F002699B00F4605467E
:105200003446B0464CE0A868C4EBC4038946426803
:1052100002EB83020E92806810AA00EBC40A2C48AD
:105220000D9251F8082F006A120A62F31F200190B4
:10523000D1F804B01C2105A8FBF70EF8D9F8180026
:10524000006800F057FC0590D9F8180080680690B7
:105250005FEA0A0009D0C0F80080D9F80010416068
:1052600029B1498819B1012102E0404603E000213B
:10527000016001B900200790D9F818001C2205A987
:10528000406809900198CDE90A0B0D98FAF7CBFF19
:105290001C2210A90E98FAF7C6FF761CB6B2641C41
:1052A0000DB1288800E00020A04205D9686818B137
:1052B00050F824100029A6D11EB1A86840683860B3
:1052C00001E0C7F8008019B03046BDE8F08F00005B
:1052D000280501080021C0F34342042A01D0082A0E
:1052E00006D1C0F3C612C0F34150C2400121914023
:1052F0000846704770B505460C464888698888425C
:1053000002D9AAB1002070BD92B100260CE000BF06
:105310006168C6EBC6006A6801EB800102EB8000A1
:105320001C22FAF780FF761C6088B042F0D801E0BA
:10533000606868606088688020882880012070BD6F
:1053400030B500B3F9B1F2B15268E2B10F4C136855
:10535000A34203D00260012913D014E00023121DE0
:1053600007E000BF52F82350A54204D040F8235074
:105370005B1C8B42F6D38B4205D152F82300A0422E
:1053800001D1012030BD002030BD0000DECAFAA1ED
:1053900070B50D46060014461AD0CCB1104600F088
:1053A00051FC00B16088A84212D10023042109E019
:1053B000C3EBC302606801EB8202805820B146F85B
:1053C00023005B1CAB42F3D3AB4201D1012070BD83
:1053D000002070BD0349884201D1012070470020A0
:1053E00070470000DECAFAA12DE9FE4F92468946B9
:1053F000040003D0208E20B1656B03E00020BDE8DF
:10540000FE8F0025002060832083207CC04380071E
:1054100002D030221121DCE0B9F1000F61D0D5B308
:105420002888C0B3D9F818000026D0F8008056E0CC
:10543000A868006800EB0610019052D058B3C6EB84
:10544000C600029009EB80000121009000F004FCEE
:10545000DBF81830596888421AD80098DBF80C201D
:105460008069D768D0F80CC0674511D19768D0F82B
:1054700008C067450CD152684068824208D118685C
:1054800000F028FB0746584603F044FE874203D24B
:10549000182212219DE024E0DBF81800006800F0DB
:1054A00029FB029920F07E4259F8210020F07E402D
:1054B000824201D01922ECE70098406888B1009838
:1054C0008069006878B14146404500D20846804670
:1054D000DDE900105A4600F08FF8761C2DB12888BF
:1054E00004E01722D5E72122D3E70020B04206D9F5
:1054F000686820B150F826B0BBF1000F98D1BAF11E
:10550000000F74D0208E012806D9656B0C3503D0AE
:10551000288808B1002658E0182259E0A8680068D9
:1055200000EB061B3BD0BBF1000F38D0C6EBC6002A
:1055300001900AEB80000121009000F08DFBD9F86A
:10554000183059688842E7D80098D9F80C2080694B
:10555000D768D0F80CC06745DED19768D0F808C08E
:105560006745D9D1526840688242D5D1186800F0A9
:10557000B1FA0746484603F0CDFD8742CCD3D9F8AF
:105580001800006800F0B6FA20F07E4201985AF840
:10559000200020F07E40824203D0192218E017221A
:1055A00016E0009840680028F9D0009880690068EB
:1055B00068B14146404500D2084680464A465846B2
:1055C000009900F019F8761C3DB1288806E02122E8
:1055D0001321204600F0C8FE10E70020B04206D993
:1055E000686820B150F82690B9F1000F96D1A4F860
:1055F00018804FF0010002E770B504460E461546CC
:10560000104603F087FD0146A060B069006848437A
:10561000E06071686160726810442060A869026887
:10562000920007D4D0E90223D21A11448160A969FB
:105630006068C86070BD70B50646002521E0B0689E
:10564000006800EB051488690268920005D581683E
:10565000A268606804F074FA08E0D0E90223D21A64
:1056600063681A44826089696068C860D4E901018E
:10567000084460602168884201D3E068081A6D1C04
:1056800060600EB1308800E00020A84206D9706842
:10569000002803D050F825100029D0D170BD2DE985
:1056A000F0410646002529E0B1688369096801EBED
:1056B000051419688900D4E901120DD5986804F021
:1056C0003FFAD4E90101084460602168884201D3AF
:1056D000E068081A606010E00A44626021688A424B
:1056E00001D3E2688A1A62608169D1E90237DB1B63
:1056F0001A448A6080696168C1606D1C0EB130888F
:1057000000E00020A84206D97068002803D050F8B5
:1057100025000028C8D1BDE8F08100002DE9FF4F29
:105720008DB09B460F460446002606E025280BD088
:105730005A460F999047641C761C20780028F5D1B2
:1057400011B03046BDE8F08F0025A84601229849E7
:1057500000E0054314F8013F203B02FA03F0084241
:10576000F7D120782E2817D114F8010F45F0040541
:105770002A280ED06FF02F022078A0F130010929DD
:105780000AD808EB880102EB410100EB0108641C18
:10579000F2E757F8048B641C20786C280DD004DCE9
:1057A0004C2812D06A2811D104E074280DD07A2830
:1057B0000CD10AE045F4001507E0617845F4801546
:1057C000814202D1641C05F58015641C207869288B
:1057D00044D008DC0028B3D0582867D063280FD005
:1057E000642808D13AE0702865D0732812D0752853
:1057F0005AD078285AD05A460F999047761CD5E04F
:1058000017F8040B8DF8000000208DF80100E94620
:10581000012003E057F8049B4FF0FF3069074FF079
:10582000000501D40AE06D1C45450DDA8542FADB1E
:1058300019F805100029F6D106E06D1C8542FCDB45
:1058400019F805100029F8D12E4404E019F8010BCD
:105850005A460F9990476D1EF8D2A7E00A20002102
:10586000CDE90801C5F3025002280CD001CFC117C1
:10587000021E71F100020CDA0023D0EB030063EB8F
:1058800001012D2208E0FF1D27F00707F7E80201BC
:10589000EEE72A0504D52B228DF8282001223CE0D2
:1058A000EA073AD02022F7E70A2000E01020002182
:1058B000CDE9080107E01020002145F00405CDE9FD
:1058C00008014FF00808C5F30250022810D001CF9C
:1058D00000214FF0000A2A0720D52278702A0DD027
:1058E000DDE908C38CF0100C5CEA030C0CD015E069
:1058F000FF1D27F00707F7E80201EAE740228DF8CD
:1059000028204FF0010A0CE050EA010306D03023B2
:105910008DF828308DF82920022292462278582AC4
:1059200004D024A20DF120090B9209E026A2F9E788
:10593000DDE90823FAF746FC0B9B9B5C09F8013D67
:1059400050EA0102F4D1ADEB09002030089068075D
:1059500001D44FF001080899884503DD0898A8EBA9
:10596000000000E000208046002506E00AA85A4614
:10597000405D0F9990476D1C761C5545F6DB04E0A1
:1059800030205A460F999047761CB8F10001A8F1D3
:105990000108F5DC05E019F8010B5A460F9990470C
:1059A000761C0899481E08900029F4DC641CC4E6A3
:1059B00009280100303132333435363738396162E5
:1059C00063646566000000003031323334353637A9
:1059D00038394142434445460000000038B510487C
:1059E00000226946006800900E4800F095FE10F015
:1059F000FF0F07D0020AC1B20BA0FFF79FFA4FF0CA
:105A0000FF3038BD074C0021206800F0F7FE6060D1
:105A10000021206800F0FCFEA060002038BD0000DE
:105A200040AB000800000020453A20796F6C6F669B
:105A300061636535306B20637265617465206572E2
:105A4000726F72202D2025643A25640D0A00000033
:105A500070B50B4C0B4661684860A26853602068C3
:105A600000F0E0FE0546012808D0206800F0ACFEFA
:105A7000020AC1B22B4603A0FFF760FA002070BDF6
:105A800000000020573A2072756E207761726E69AF
:105A90006E67202D2025643A256420286E5F6261A0
:105AA0007463683D2564290D0A00000070B579B162
:105AB000C0F3C6156943C91D21F00704C0F3415165
:105AC000CC40FFF707FC00FB0540C01DC00870BDBF
:105AD000002070BD59B1C0F3C6125143C91D21F059
